{
  "_format": "hh-sol-artifact-1",
  "contractName": "AmazonCoin",
  "sourceName": "contracts/AmazonCoin.sol",
  "abi": [
    {
      "inputs": [],
      "stateMutability": "nonpayable",
      "type": "constructor"
    },
    {
      "anonymous": false,
      "inputs": [
        {
          "indexed": true,
          "internalType": "address",
          "name": "owner",
          "type": "address"
        },
        {
          "indexed": true,
          "internalType": "address",
          "name": "approved",
          "type": "address"
        },
        {
          "indexed": true,
          "internalType": "uint256",
          "name": "tokenId",
          "type": "uint256"
        }
      ],
      "name": "Approval",
      "type": "event"
    },
    {
      "anonymous": false,
      "inputs": [
        {
          "indexed": true,
          "internalType": "address",
          "name": "owner",
          "type": "address"
        },
        {
          "indexed": true,
          "internalType": "address",
          "name": "operator",
          "type": "address"
        },
        {
          "indexed": false,
          "internalType": "bool",
          "name": "approved",
          "type": "bool"
        }
      ],
      "name": "ApprovalForAll",
      "type": "event"
    },
    {
      "anonymous": false,
      "inputs": [
        {
          "indexed": true,
          "internalType": "address",
          "name": "previousOwner",
          "type": "address"
        },
        {
          "indexed": true,
          "internalType": "address",
          "name": "newOwner",
          "type": "address"
        }
      ],
      "name": "OwnershipTransferred",
      "type": "event"
    },
    {
      "anonymous": false,
      "inputs": [
        {
          "indexed": true,
          "internalType": "address",
          "name": "from",
          "type": "address"
        },
        {
          "indexed": true,
          "internalType": "address",
          "name": "to",
          "type": "address"
        },
        {
          "indexed": true,
          "internalType": "uint256",
          "name": "tokenId",
          "type": "uint256"
        }
      ],
      "name": "Transfer",
      "type": "event"
    },
    {
      "stateMutability": "payable",
      "type": "fallback"
    },
    {
      "inputs": [
        {
          "internalType": "address",
          "name": "to",
          "type": "address"
        },
        {
          "internalType": "uint256",
          "name": "tokenId",
          "type": "uint256"
        }
      ],
      "name": "approve",
      "outputs": [],
      "stateMutability": "nonpayable",
      "type": "function"
    },
    {
      "inputs": [
        {
          "internalType": "address",
          "name": "owner",
          "type": "address"
        }
      ],
      "name": "balanceOf",
      "outputs": [
        {
          "internalType": "uint256",
          "name": "",
          "type": "uint256"
        }
      ],
      "stateMutability": "view",
      "type": "function"
    },
    {
      "inputs": [
        {
          "internalType": "uint256",
          "name": "tokenId",
          "type": "uint256"
        }
      ],
      "name": "getApproved",
      "outputs": [
        {
          "internalType": "address",
          "name": "",
          "type": "address"
        }
      ],
      "stateMutability": "view",
      "type": "function"
    },
    {
      "inputs": [
        {
          "internalType": "address",
          "name": "owner",
          "type": "address"
        },
        {
          "internalType": "address",
          "name": "operator",
          "type": "address"
        }
      ],
      "name": "isApprovedForAll",
      "outputs": [
        {
          "internalType": "bool",
          "name": "",
          "type": "bool"
        }
      ],
      "stateMutability": "view",
      "type": "function"
    },
    {
      "inputs": [
        {
          "internalType": "uint256",
          "name": "amount",
          "type": "uint256"
        }
      ],
      "name": "mint",
      "outputs": [],
      "stateMutability": "payable",
      "type": "function"
    },
    {
      "inputs": [],
      "name": "name",
      "outputs": [
        {
          "internalType": "string",
          "name": "",
          "type": "string"
        }
      ],
      "stateMutability": "view",
      "type": "function"
    },
    {
      "inputs": [],
      "name": "owner",
      "outputs": [
        {
          "internalType": "address",
          "name": "",
          "type": "address"
        }
      ],
      "stateMutability": "view",
      "type": "function"
    },
    {
      "inputs": [
        {
          "internalType": "uint256",
          "name": "tokenId",
          "type": "uint256"
        }
      ],
      "name": "ownerOf",
      "outputs": [
        {
          "internalType": "address",
          "name": "",
          "type": "address"
        }
      ],
      "stateMutability": "view",
      "type": "function"
    },
    {
      "inputs": [],
      "name": "renounceOwnership",
      "outputs": [],
      "stateMutability": "nonpayable",
      "type": "function"
    },
    {
      "inputs": [
        {
          "internalType": "address",
          "name": "from",
          "type": "address"
        },
        {
          "internalType": "address",
          "name": "to",
          "type": "address"
        },
        {
          "internalType": "uint256",
          "name": "tokenId",
          "type": "uint256"
        }
      ],
      "name": "safeTransferFrom",
      "outputs": [],
      "stateMutability": "nonpayable",
      "type": "function"
    },
    {
      "inputs": [
        {
          "internalType": "address",
          "name": "from",
          "type": "address"
        },
        {
          "internalType": "address",
          "name": "to",
          "type": "address"
        },
        {
          "internalType": "uint256",
          "name": "tokenId",
          "type": "uint256"
        },
        {
          "internalType": "bytes",
          "name": "_data",
          "type": "bytes"
        }
      ],
      "name": "safeTransferFrom",
      "outputs": [],
      "stateMutability": "nonpayable",
      "type": "function"
    },
    {
      "inputs": [
        {
          "internalType": "address",
          "name": "operator",
          "type": "address"
        },
        {
          "internalType": "bool",
          "name": "approved",
          "type": "bool"
        }
      ],
      "name": "setApprovalForAll",
      "outputs": [],
      "stateMutability": "nonpayable",
      "type": "function"
    },
    {
      "inputs": [
        {
          "internalType": "bytes4",
          "name": "interfaceId",
          "type": "bytes4"
        }
      ],
      "name": "supportsInterface",
      "outputs": [
        {
          "internalType": "bool",
          "name": "",
          "type": "bool"
        }
      ],
      "stateMutability": "view",
      "type": "function"
    },
    {
      "inputs": [],
      "name": "symbol",
      "outputs": [
        {
          "internalType": "string",
          "name": "",
          "type": "string"
        }
      ],
      "stateMutability": "view",
      "type": "function"
    },
    {
      "inputs": [
        {
          "internalType": "uint256",
          "name": "tokenId",
          "type": "uint256"
        }
      ],
      "name": "tokenURI",
      "outputs": [
        {
          "internalType": "string",
          "name": "",
          "type": "string"
        }
      ],
      "stateMutability": "view",
      "type": "function"
    },
    {
      "inputs": [
        {
          "internalType": "address",
          "name": "from",
          "type": "address"
        },
        {
          "internalType": "address",
          "name": "to",
          "type": "address"
        },
        {
          "internalType": "uint256",
          "name": "tokenId",
          "type": "uint256"
        }
      ],
      "name": "transferFrom",
      "outputs": [],
      "stateMutability": "nonpayable",
      "type": "function"
    },
    {
      "inputs": [
        {
          "internalType": "address",
          "name": "newOwner",
          "type": "address"
        }
      ],
      "name": "transferOwnership",
      "outputs": [],
      "stateMutability": "nonpayable",
      "type": "function"
    },
    {
      "stateMutability": "payable",
      "type": "receive"
    }
  ],
  "bytecode": "0x60806040523480156200001157600080fd5b506040518060400160405280600a81526020017f416d617a6f6e436f696e000000000000000000000000000000000000000000008152506040518060400160405280600281526020017f4143000000000000000000000000000000000000000000000000000000000000815250816000908051906020019062000096929190620001a6565b508060019080519060200190620000af929190620001a6565b505050620000d2620000c6620000d860201b60201c565b620000e060201b60201c565b620002bb565b600033905090565b6000600660009054906101000a900473ffffffffffffffffffffffffffffffffffffffff16905081600660006101000a81548173ffffffffffffffffffffffffffffffffffffffff021916908373ffffffffffffffffffffffffffffffffffffffff1602179055508173ffffffffffffffffffffffffffffffffffffffff168173ffffffffffffffffffffffffffffffffffffffff167f8be0079c531659141344cd1fd0a4f28419497f9722a3daafe3b4186f6b6457e060405160405180910390a35050565b828054620001b49062000256565b90600052602060002090601f016020900481019282620001d8576000855562000224565b82601f10620001f357805160ff191683800117855562000224565b8280016001018555821562000224579182015b828111156200022357825182559160200191906001019062000206565b5b50905062000233919062000237565b5090565b5b808211156200025257600081600090555060010162000238565b5090565b600060028204905060018216806200026f57607f821691505b602082108114156200028657620002856200028c565b5b50919050565b7f4e487b7100000000000000000000000000000000000000000000000000000000600052602260045260246000fd5b612c7480620002cb6000396000f3fe6080604052600436106101025760003560e01c8063715018a611610095578063a22cb46511610064578063a22cb4651461032e578063b88d4fde14610357578063c87b56dd14610380578063e985e9c5146103bd578063f2fde38b146103fa57610109565b8063715018a6146102a55780638da5cb5b146102bc57806395d89b41146102e7578063a0712d681461031257610109565b806323b872dd116100d157806323b872dd146101d957806342842e0e146102025780636352211e1461022b57806370a082311461026857610109565b806301ffc9a71461010b57806306fdde0314610148578063081812fc14610173578063095ea7b3146101b057610109565b3661010957005b005b34801561011757600080fd5b50610132600480360381019061012d9190611cb2565b610423565b60405161013f91906120db565b60405180910390f35b34801561015457600080fd5b5061015d610505565b60405161016a91906120f6565b60405180910390f35b34801561017f57600080fd5b5061019a60048036038101906101959190611d04565b610597565b6040516101a79190612074565b60405180910390f35b3480156101bc57600080fd5b506101d760048036038101906101d29190611c76565b61061c565b005b3480156101e557600080fd5b5061020060048036038101906101fb9190611b70565b610734565b005b34801561020e57600080fd5b5061022960048036038101906102249190611b70565b610794565b005b34801561023757600080fd5b50610252600480360381019061024d9190611d04565b6107b4565b60405161025f9190612074565b60405180910390f35b34801561027457600080fd5b5061028f600480360381019061028a9190611b0b565b610866565b60405161029c9190612338565b60405180910390f35b3480156102b157600080fd5b506102ba61091e565b005b3480156102c857600080fd5b506102d16109a6565b6040516102de9190612074565b60405180910390f35b3480156102f357600080fd5b506102fc6109d0565b60405161030991906120f6565b60405180910390f35b61032c60048036038101906103279190611d04565b610a62565b005b34801561033a57600080fd5b5061035560048036038101906103509190611c3a565b610ac2565b005b34801561036357600080fd5b5061037e60048036038101906103799190611bbf565b610ad8565b005b34801561038c57600080fd5b506103a760048036038101906103a29190611d04565b610b3a565b6040516103b491906120f6565b60405180910390f35b3480156103c957600080fd5b506103e460048036038101906103df9190611b34565b610be1565b6040516103f191906120db565b60405180910390f35b34801561040657600080fd5b50610421600480360381019061041c9190611b0b565b610c75565b005b60007f80ac58cd000000000000000000000000000000000000000000000000000000007bffffffffffffffffffffffffffffffffffffffffffffffffffffffff1916827bffffffffffffffffffffffffffffffffffffffffffffffffffffffff191614806104ee57507f5b5e139f000000000000000000000000000000000000000000000000000000007bffffffffffffffffffffffffffffffffffffffffffffffffffffffff1916827bffffffffffffffffffffffffffffffffffffffffffffffffffffffff1916145b806104fe57506104fd82610d6d565b5b9050919050565b606060008054610514906125b7565b80601f0160208091040260200160405190810160405280929190818152602001828054610540906125b7565b801561058d5780601f106105625761010080835404028352916020019161058d565b820191906000526020600020905b81548152906001019060200180831161057057829003601f168201915b5050505050905090565b60006105a282610dd7565b6105e1576040517f08c379a00000000000000000000000000000000000000000000000000000000081526004016105d890612298565b60405180910390fd5b6004600083815260200190815260200160002060009054906101000a900473ffffffffffffffffffffffffffffffffffffffff169050919050565b6000610627826107b4565b90508073ffffffffffffffffffffffffffffffffffffffff168373ffffffffffffffffffffffffffffffffffffffff161415610698576040517f08c379a000000000000000000000000000000000000000000000000000000000815260040161068f906122f8565b60405180910390fd5b8073ffffffffffffffffffffffffffffffffffffffff166106b7610e43565b73ffffffffffffffffffffffffffffffffffffffff1614806106e657506106e5816106e0610e43565b610be1565b5b610725576040517f08c379a000000000000000000000000000000000000000000000000000000000815260040161071c90612218565b60405180910390fd5b61072f8383610e4b565b505050565b61074561073f610e43565b82610f04565b610784576040517f08c379a000000000000000000000000000000000000000000000000000000000815260040161077b90612318565b60405180910390fd5b61078f838383610fe2565b505050565b6107af83838360405180602001604052806000815250610ad8565b505050565b6000806002600084815260200190815260200160002060009054906101000a900473ffffffffffffffffffffffffffffffffffffffff169050600073ffffffffffffffffffffffffffffffffffffffff168173ffffffffffffffffffffffffffffffffffffffff16141561085d576040517f08c379a000000000000000000000000000000000000000000000000000000000815260040161085490612258565b60405180910390fd5b80915050919050565b60008073ffffffffffffffffffffffffffffffffffffffff168273ffffffffffffffffffffffffffffffffffffffff1614156108d7576040517f08c379a00000000000000000000000000000000000000000000000000000000081526004016108ce90612238565b60405180910390fd5b600360008373ffffffffffffffffffffffffffffffffffffffff1673ffffffffffffffffffffffffffffffffffffffff168152602001908152602001600020549050919050565b610926610e43565b73ffffffffffffffffffffffffffffffffffffffff166109446109a6565b73ffffffffffffffffffffffffffffffffffffffff161461099a576040517f08c379a0000000000000000000000000000000000000000000000000000000008152600401610991906122b8565b60405180910390fd5b6109a46000611249565b565b6000600660009054906101000a900473ffffffffffffffffffffffffffffffffffffffff16905090565b6060600180546109df906125b7565b80601f0160208091040260200160405190810160405280929190818152602001828054610a0b906125b7565b8015610a585780601f10610a2d57610100808354040283529160200191610a58565b820191906000526020600020905b815481529060010190602001808311610a3b57829003601f168201915b5050505050905090565b655af3107a400081610a749190612473565b3414610ab5576040517f08c379a0000000000000000000000000000000000000000000000000000000008152600401610aac90612118565b60405180910390fd5b610abf338261130f565b50565b610ad4610acd610e43565b83836114e9565b5050565b610ae9610ae3610e43565b83610f04565b610b28576040517f08c379a0000000000000000000000000000000000000000000000000000000008152600401610b1f90612318565b60405180910390fd5b610b3484848484611656565b50505050565b6060610b4582610dd7565b610b84576040517f08c379a0000000000000000000000000000000000000000000000000000000008152600401610b7b906122d8565b60405180910390fd5b6000610b8e6116b2565b90506000815111610bae5760405180602001604052806000815250610bd9565b80610bb8846116c9565b604051602001610bc9929190612050565b6040516020818303038152906040525b915050919050565b6000600560008473ffffffffffffffffffffffffffffffffffffffff1673ffffffffffffffffffffffffffffffffffffffff16815260200190815260200160002060008373ffffffffffffffffffffffffffffffffffffffff1673ffffffffffffffffffffffffffffffffffffffff16815260200190815260200160002060009054906101000a900460ff16905092915050565b610c7d610e43565b73ffffffffffffffffffffffffffffffffffffffff16610c9b6109a6565b73ffffffffffffffffffffffffffffffffffffffff1614610cf1576040517f08c379a0000000000000000000000000000000000000000000000000000000008152600401610ce8906122b8565b60405180910390fd5b600073ffffffffffffffffffffffffffffffffffffffff168173ffffffffffffffffffffffffffffffffffffffff161415610d61576040517f08c379a0000000000000000000000000000000000000000000000000000000008152600401610d5890612158565b60405180910390fd5b610d6a81611249565b50565b60007f01ffc9a7000000000000000000000000000000000000000000000000000000007bffffffffffffffffffffffffffffffffffffffffffffffffffffffff1916827bffffffffffffffffffffffffffffffffffffffffffffffffffffffff1916149050919050565b60008073ffffffffffffffffffffffffffffffffffffffff166002600084815260200190815260200160002060009054906101000a900473ffffffffffffffffffffffffffffffffffffffff1673ffffffffffffffffffffffffffffffffffffffff1614159050919050565b600033905090565b816004600083815260200190815260200160002060006101000a81548173ffffffffffffffffffffffffffffffffffffffff021916908373ffffffffffffffffffffffffffffffffffffffff160217905550808273ffffffffffffffffffffffffffffffffffffffff16610ebe836107b4565b73ffffffffffffffffffffffffffffffffffffffff167f8c5be1e5ebec7d5bd14f71427d1e84f3dd0314c0f7b2291e5b200ac8c7c3b92560405160405180910390a45050565b6000610f0f82610dd7565b610f4e576040517f08c379a0000000000000000000000000000000000000000000000000000000008152600401610f45906121f8565b60405180910390fd5b6000610f59836107b4565b90508073ffffffffffffffffffffffffffffffffffffffff168473ffffffffffffffffffffffffffffffffffffffff161480610f9b5750610f9a8185610be1565b5b80610fd957508373ffffffffffffffffffffffffffffffffffffffff16610fc184610597565b73ffffffffffffffffffffffffffffffffffffffff16145b91505092915050565b8273ffffffffffffffffffffffffffffffffffffffff16611002826107b4565b73ffffffffffffffffffffffffffffffffffffffff1614611058576040517f08c379a000000000000000000000000000000000000000000000000000000000815260040161104f90612178565b60405180910390fd5b600073ffffffffffffffffffffffffffffffffffffffff168273ffffffffffffffffffffffffffffffffffffffff1614156110c8576040517f08c379a00000000000000000000000000000000000000000000000000000000081526004016110bf906121b8565b60405180910390fd5b6110d3838383611876565b6110de600082610e4b565b6001600360008573ffffffffffffffffffffffffffffffffffffffff1673ffffffffffffffffffffffffffffffffffffffff168152602001908152602001600020600082825461112e91906124cd565b925050819055506001600360008473ffffffffffffffffffffffffffffffffffffffff1673ffffffffffffffffffffffffffffffffffffffff168152602001908152602001600020600082825461118591906123ec565b92505081905550816002600083815260200190815260200160002060006101000a81548173ffffffffffffffffffffffffffffffffffffffff021916908373ffffffffffffffffffffffffffffffffffffffff160217905550808273ffffffffffffffffffffffffffffffffffffffff168473ffffffffffffffffffffffffffffffffffffffff167fddf252ad1be2c89b69c2b068fc378daa952ba7f163c4a11628f55a4df523b3ef60405160405180910390a461124483838361187b565b505050565b6000600660009054906101000a900473ffffffffffffffffffffffffffffffffffffffff16905081600660006101000a81548173ffffffffffffffffffffffffffffffffffffffff021916908373ffffffffffffffffffffffffffffffffffffffff1602179055508173ffffffffffffffffffffffffffffffffffffffff168173ffffffffffffffffffffffffffffffffffffffff167f8be0079c531659141344cd1fd0a4f28419497f9722a3daafe3b4186f6b6457e060405160405180910390a35050565b600073ffffffffffffffffffffffffffffffffffffffff168273ffffffffffffffffffffffffffffffffffffffff16141561137f576040517f08c379a000000000000000000000000000000000000000000000000000000000815260040161137690612278565b60405180910390fd5b61138881610dd7565b156113c8576040517f08c379a00000000000000000000000000000000000000000000000000000000081526004016113bf90612198565b60405180910390fd5b6113d460008383611876565b6001600360008473ffffffffffffffffffffffffffffffffffffffff1673ffffffffffffffffffffffffffffffffffffffff168152602001908152602001600020600082825461142491906123ec565b92505081905550816002600083815260200190815260200160002060006101000a81548173ffffffffffffffffffffffffffffffffffffffff021916908373ffffffffffffffffffffffffffffffffffffffff160217905550808273ffffffffffffffffffffffffffffffffffffffff16600073ffffffffffffffffffffffffffffffffffffffff167fddf252ad1be2c89b69c2b068fc378daa952ba7f163c4a11628f55a4df523b3ef60405160405180910390a46114e56000838361187b565b5050565b8173ffffffffffffffffffffffffffffffffffffffff168373ffffffffffffffffffffffffffffffffffffffff161415611558576040517f08c379a000000000000000000000000000000000000000000000000000000000815260040161154f906121d8565b60405180910390fd5b80600560008573ffffffffffffffffffffffffffffffffffffffff1673ffffffffffffffffffffffffffffffffffffffff16815260200190815260200160002060008473ffffffffffffffffffffffffffffffffffffffff1673ffffffffffffffffffffffffffffffffffffffff16815260200190815260200160002060006101000a81548160ff0219169083151502179055508173ffffffffffffffffffffffffffffffffffffffff168373ffffffffffffffffffffffffffffffffffffffff167f17307eab39ab6107e8899845ad3d59bd9653f200f220920489ca2b5937696c318360405161164991906120db565b60405180910390a3505050565b611661848484610fe2565b61166d84848484611880565b6116ac576040517f08c379a00000000000000000000000000000000000000000000000000000000081526004016116a390612138565b60405180910390fd5b50505050565b606060405180602001604052806000815250905090565b60606000821415611711576040518060400160405280600181526020017f30000000000000000000000000000000000000000000000000000000000000008152509050611871565b600082905060005b6000821461174357808061172c9061261a565b915050600a8261173c9190612442565b9150611719565b60008167ffffffffffffffff811115611785577f4e487b7100000000000000000000000000000000000000000000000000000000600052604160045260246000fd5b6040519080825280601f01601f1916602001820160405280156117b75781602001600182028036833780820191505090505b5090505b6000851461186a576001826117d091906124cd565b9150600a856117df9190612663565b60306117eb91906123ec565b60f81b818381518110611827577f4e487b7100000000000000000000000000000000000000000000000000000000600052603260045260246000fd5b60200101907effffffffffffffffffffffffffffffffffffffffffffffffffffffffffffff1916908160001a905350600a856118639190612442565b94506117bb565b8093505050505b919050565b505050565b505050565b60006118a18473ffffffffffffffffffffffffffffffffffffffff16611a17565b15611a0a578373ffffffffffffffffffffffffffffffffffffffff1663150b7a026118ca610e43565b8786866040518563ffffffff1660e01b81526004016118ec949392919061208f565b602060405180830381600087803b15801561190657600080fd5b505af192505050801561193757506040513d601f19601f820116820180604052508101906119349190611cdb565b60015b6119ba573d8060008114611967576040519150601f19603f3d011682016040523d82523d6000602084013e61196c565b606091505b506000815114156119b2576040517f08c379a00000000000000000000000000000000000000000000000000000000081526004016119a990612138565b60405180910390fd5b805181602001fd5b63150b7a0260e01b7bffffffffffffffffffffffffffffffffffffffffffffffffffffffff1916817bffffffffffffffffffffffffffffffffffffffffffffffffffffffff191614915050611a0f565b600190505b949350505050565b6000808273ffffffffffffffffffffffffffffffffffffffff163b119050919050565b6000611a4d611a4884612378565b612353565b905082815260208101848484011115611a6557600080fd5b611a70848285612575565b509392505050565b600081359050611a8781612be2565b92915050565b600081359050611a9c81612bf9565b92915050565b600081359050611ab181612c10565b92915050565b600081519050611ac681612c10565b92915050565b600082601f830112611add57600080fd5b8135611aed848260208601611a3a565b91505092915050565b600081359050611b0581612c27565b92915050565b600060208284031215611b1d57600080fd5b6000611b2b84828501611a78565b91505092915050565b60008060408385031215611b4757600080fd5b6000611b5585828601611a78565b9250506020611b6685828601611a78565b9150509250929050565b600080600060608486031215611b8557600080fd5b6000611b9386828701611a78565b9350506020611ba486828701611a78565b9250506040611bb586828701611af6565b9150509250925092565b60008060008060808587031215611bd557600080fd5b6000611be387828801611a78565b9450506020611bf487828801611a78565b9350506040611c0587828801611af6565b925050606085013567ffffffffffffffff811115611c2257600080fd5b611c2e87828801611acc565b91505092959194509250565b60008060408385031215611c4d57600080fd5b6000611c5b85828601611a78565b9250506020611c6c85828601611a8d565b9150509250929050565b60008060408385031215611c8957600080fd5b6000611c9785828601611a78565b9250506020611ca885828601611af6565b9150509250929050565b600060208284031215611cc457600080fd5b6000611cd284828501611aa2565b91505092915050565b600060208284031215611ced57600080fd5b6000611cfb84828501611ab7565b91505092915050565b600060208284031215611d1657600080fd5b6000611d2484828501611af6565b91505092915050565b611d3681612501565b82525050565b611d4581612513565b82525050565b6000611d56826123a9565b611d6081856123bf565b9350611d70818560208601612584565b611d7981612750565b840191505092915050565b6000611d8f826123b4565b611d9981856123d0565b9350611da9818560208601612584565b611db281612750565b840191505092915050565b6000611dc8826123b4565b611dd281856123e1565b9350611de2818560208601612584565b80840191505092915050565b6000611dfb6017836123d0565b9150611e0682612761565b602082019050919050565b6000611e1e6032836123d0565b9150611e298261278a565b604082019050919050565b6000611e416026836123d0565b9150611e4c826127d9565b604082019050919050565b6000611e646025836123d0565b9150611e6f82612828565b604082019050919050565b6000611e87601c836123d0565b9150611e9282612877565b602082019050919050565b6000611eaa6024836123d0565b9150611eb5826128a0565b604082019050919050565b6000611ecd6019836123d0565b9150611ed8826128ef565b602082019050919050565b6000611ef0602c836123d0565b9150611efb82612918565b604082019050919050565b6000611f136038836123d0565b9150611f1e82612967565b604082019050919050565b6000611f36602a836123d0565b9150611f41826129b6565b604082019050919050565b6000611f596029836123d0565b9150611f6482612a05565b604082019050919050565b6000611f7c6020836123d0565b9150611f8782612a54565b602082019050919050565b6000611f9f602c836123d0565b9150611faa82612a7d565b604082019050919050565b6000611fc26020836123d0565b9150611fcd82612acc565b602082019050919050565b6000611fe5602f836123d0565b9150611ff082612af5565b604082019050919050565b60006120086021836123d0565b915061201382612b44565b604082019050919050565b600061202b6031836123d0565b915061203682612b93565b604082019050919050565b61204a8161256b565b82525050565b600061205c8285611dbd565b91506120688284611dbd565b91508190509392505050565b60006020820190506120896000830184611d2d565b92915050565b60006080820190506120a46000830187611d2d565b6120b16020830186611d2d565b6120be6040830185612041565b81810360608301526120d08184611d4b565b905095945050505050565b60006020820190506120f06000830184611d3c565b92915050565b600060208201905081810360008301526121108184611d84565b905092915050565b6000602082019050818103600083015261213181611dee565b9050919050565b6000602082019050818103600083015261215181611e11565b9050919050565b6000602082019050818103600083015261217181611e34565b9050919050565b6000602082019050818103600083015261219181611e57565b9050919050565b600060208201905081810360008301526121b181611e7a565b9050919050565b600060208201905081810360008301526121d181611e9d565b9050919050565b600060208201905081810360008301526121f181611ec0565b9050919050565b6000602082019050818103600083015261221181611ee3565b9050919050565b6000602082019050818103600083015261223181611f06565b9050919050565b6000602082019050818103600083015261225181611f29565b9050919050565b6000602082019050818103600083015261227181611f4c565b9050919050565b6000602082019050818103600083015261229181611f6f565b9050919050565b600060208201905081810360008301526122b181611f92565b9050919050565b600060208201905081810360008301526122d181611fb5565b9050919050565b600060208201905081810360008301526122f181611fd8565b9050919050565b6000602082019050818103600083015261231181611ffb565b9050919050565b600060208201905081810360008301526123318161201e565b9050919050565b600060208201905061234d6000830184612041565b92915050565b600061235d61236e565b905061236982826125e9565b919050565b6000604051905090565b600067ffffffffffffffff82111561239357612392612721565b5b61239c82612750565b9050602081019050919050565b600081519050919050565b600081519050919050565b600082825260208201905092915050565b600082825260208201905092915050565b600081905092915050565b60006123f78261256b565b91506124028361256b565b9250827fffffffffffffffffffffffffffffffffffffffffffffffffffffffffffffffff0382111561243757612436612694565b5b828201905092915050565b600061244d8261256b565b91506124588361256b565b925082612468576124676126c3565b5b828204905092915050565b600061247e8261256b565b91506124898361256b565b9250817fffffffffffffffffffffffffffffffffffffffffffffffffffffffffffffffff04831182151516156124c2576124c1612694565b5b828202905092915050565b60006124d88261256b565b91506124e38361256b565b9250828210156124f6576124f5612694565b5b828203905092915050565b600061250c8261254b565b9050919050565b60008115159050919050565b60007fffffffff0000000000000000000000000000000000000000000000000000000082169050919050565b600073ffffffffffffffffffffffffffffffffffffffff82169050919050565b6000819050919050565b82818337600083830152505050565b60005b838110156125a2578082015181840152602081019050612587565b838111156125b1576000848401525b50505050565b600060028204905060018216806125cf57607f821691505b602082108114156125e3576125e26126f2565b5b50919050565b6125f282612750565b810181811067ffffffffffffffff8211171561261157612610612721565b5b80604052505050565b60006126258261256b565b91507fffffffffffffffffffffffffffffffffffffffffffffffffffffffffffffffff82141561265857612657612694565b5b600182019050919050565b600061266e8261256b565b91506126798361256b565b925082612689576126886126c3565b5b828206905092915050565b7f4e487b7100000000000000000000000000000000000000000000000000000000600052601160045260246000fd5b7f4e487b7100000000000000000000000000000000000000000000000000000000600052601260045260246000fd5b7f4e487b7100000000000000000000000000000000000000000000000000000000600052602260045260246000fd5b7f4e487b7100000000000000000000000000000000000000000000000000000000600052604160045260246000fd5b6000601f19601f8301169050919050565b7f696e76616c696420616d6f756e74206f66206574686572000000000000000000600082015250565b7f4552433732313a207472616e7366657220746f206e6f6e20455243373231526560008201527f63656976657220696d706c656d656e7465720000000000000000000000000000602082015250565b7f4f776e61626c653a206e6577206f776e657220697320746865207a65726f206160008201527f6464726573730000000000000000000000000000000000000000000000000000602082015250565b7f4552433732313a207472616e736665722066726f6d20696e636f72726563742060008201527f6f776e6572000000000000000000000000000000000000000000000000000000602082015250565b7f4552433732313a20746f6b656e20616c7265616479206d696e74656400000000600082015250565b7f4552433732313a207472616e7366657220746f20746865207a65726f2061646460008201527f7265737300000000000000000000000000000000000000000000000000000000602082015250565b7f4552433732313a20617070726f766520746f2063616c6c657200000000000000600082015250565b7f4552433732313a206f70657261746f7220717565727920666f72206e6f6e657860008201527f697374656e7420746f6b656e0000000000000000000000000000000000000000602082015250565b7f4552433732313a20617070726f76652063616c6c6572206973206e6f74206f7760008201527f6e6572206e6f7220617070726f76656420666f7220616c6c0000000000000000602082015250565b7f4552433732313a2062616c616e636520717565727920666f7220746865207a6560008201527f726f206164647265737300000000000000000000000000000000000000000000602082015250565b7f4552433732313a206f776e657220717565727920666f72206e6f6e657869737460008201527f656e7420746f6b656e0000000000000000000000000000000000000000000000602082015250565b7f4552433732313a206d696e7420746f20746865207a65726f2061646472657373600082015250565b7f4552433732313a20617070726f76656420717565727920666f72206e6f6e657860008201527f697374656e7420746f6b656e0000000000000000000000000000000000000000602082015250565b7f4f776e61626c653a2063616c6c6572206973206e6f7420746865206f776e6572600082015250565b7f4552433732314d657461646174613a2055524920717565727920666f72206e6f60008201527f6e6578697374656e7420746f6b656e0000000000000000000000000000000000602082015250565b7f4552433732313a20617070726f76616c20746f2063757272656e74206f776e6560008201527f7200000000000000000000000000000000000000000000000000000000000000602082015250565b7f4552433732313a207472616e736665722063616c6c6572206973206e6f74206f60008201527f776e6572206e6f7220617070726f766564000000000000000000000000000000602082015250565b612beb81612501565b8114612bf657600080fd5b50565b612c0281612513565b8114612c0d57600080fd5b50565b612c198161251f565b8114612c2457600080fd5b50565b612c308161256b565b8114612c3b57600080fd5b5056fea264697066735822122039cc5bb1c284a53b643d43c7dc0d8f001cc01c96200515d5fa19ff7613fdbfe464736f6c63430008040033",
  "linkReferences": {},
  "deployedLinkReferences": {}
}